:020000040800F2
:10000000F8060020D5000008F1110008FB100008D8
:1000100000000000000000000000000000000000E0
:10002000000000000000000000000000A91300080C
:10003000000000000000000039120008AB130008A7
:100040000501000805010008050100080501000878
:100050000501000805010008050100080501000868
:100060000501000805010008050100080501000858
:100070000501000805010008050100080501000848
:100080000501000800000000000000000501000854
:100090000000000005010008050100080501000836
:1000A0000000000005010008050100080501000826
:1000B00061180008000000000501000805010008A3
:1000C0000348854600F0AAF800480047211C0008B4
:1000D000F80600200C4880F308880C480168090ED7
:1000E0000B4A914205D10B480B4901600B480C4962
:1000F00001600C4880470C480047FEE7FEE7FEE73A
:10010000FEE7FEE7FEE70000F8060020040000001E
:100110001F00000018100240010000000000014014
:100120000000000011140008C100000830B50B46A3
:10013000014600202022012409E00D46D5409D42C1
:1001400005D31D469540491B254695404019154647
:10015000521E002DF1DC30BD10B5202A04DB08460C
:10016000203AD040002110BD0B46D340D04020247F
:10017000A21A91400843194610BDD2B201E00270A4
:10018000401C491EFBD270470022F6E710B513460B
:100190000A4604461946FFF7F0FF204610BD30B569
:1001A00005460020034600E05B1C934205D2EC5C50
:1001B000C85C201A01D1002CF6D130BDF0B51FB4B7
:1001C0000646002082B005464024019100901BE0C5
:1001D000019922460F463046FFF7BEFF049A059B61
:1001E000801A994110D310461946224600F028F88B
:1001F000361A8F410197224601200021009F00F00E
:100200001FF838184D4100902046641E0028DFDC9E
:10021000019B00982946324607B0F0BD064C0125E7
:10022000064E05E0E36807CC2B430C3C984710349E
:10023000B442F7D3FFF748FF441E0008641E0008CD
:1002400010B5202A04DB0146203A9140002010BD61
:10025000914020239C1A0346E3401943904010BD6F
:1002600070B50024014620314A78022A03D00421C7
:100270008163012416E0026813680E25AB43136006
:10028000026813685B085B0013600122056C13466B
:10029000AB40C56B6B604A7000220A70416B00294D
:1002A00000D08847204670BD31B500F0AFF8009C03
:1002B0000546601C00D0641C00F0A8F8401BA0425A
:1002C000FAD338BDF8B5002389E001249C402A46C2
:1002D000A44622407ED04C68022C01D0122C0CD1B6
:1002E000DC08A40027183C6A5D07ED0E0F26AE401F
:1002F000B4430E69AE4026433E6205685E000324A7
:10030000B4400F79A543BF07BF0FB7402F43076025
:100310004D68012D05D0022D03D0112D01D0122DD5
:100320000ED18568CF68A543B7402F4387604768E3
:100330006546AF430D79ED06ED0F9D403D434560A9
:10034000C568A5438C68B4402C43C4604C68E40085
:1003500044D5264CA56901263543A561A4699D08AD
:1003600034400094224CAD002F19BC689D072E0F1D
:100370000F25B540AC430925ED06A84201D1002563
:100380000AE01C4DA84201D1012505E01A4DA84202
:1003900001D1022500E00525B5402543BD60174C7D
:1003A00025684E689543F60300D5154325606568BA
:1003B0004E689543B60300D515436560A5684E6841
:1003C0009543F60200D51543A560E5684E68954350
:1003D000B60200E002E000D51543E5605B1C0A6848
:1003E0001546DA4000D070E7F8BD0000001002406A
:1003F00000000140000400480008004800040140DB
:10040000002A01D08161704781627047014800680D
:10041000704700000400002002480168491C016088
:10042000704700000400002010B506480168102243
:1004300011430160002000F007F800F017F80020D9
:1004400010BD00000020024010B5044600F0F0F896
:100450007D21C900FFF76AFE00F074FC00222146EE
:10046000501E00F037F8002010BD000008B51248FB
:100470008169012211438161816911400091C26942
:1004800001040A43C261C06900220840009011467D
:10049000501F00F01FF800221146901E00F01AF8BD
:1004A00000221146501E00F015F804480168102281
:1004B0001143016008BD000000100240000001402F
:1004C000C106C90E0120884001490860704700003C
:1004D00000E100E010B500F08DFE10BDF8B5054656
:1004E0004E480E460068C007C00FB0420AD24B48C3
:1004F000016849084900314301600068C007C00F26
:10050000B04270D12878464C800705D56068F0214C
:100510008843A968084360602878C00753D068689A
:10052000012817D0022818D0032819D0216889077C
:10053000002958DA61688908890001436160FFF782
:1005400065FF69680746012913D002291DD00329D8
:1005500027D034E021688903EAE721688901E7E7C9
:10056000616BC903E4E7FFF751FFC11B2D488142CE
:1005700023D860680007800F0128F4D123E0FFF73B
:1005800045FFC11B2748814217D860680007800FCC
:100590000228F4D117E0FFF739FFC11B214881423F
:1005A0000BD860680007800F0328F4D10BE0FFF739
:1005B0002DFFC11B1B48814201D90320F8BD606893
:1005C0000007800FF3D115480168C907C90FB14270
:1005D0000BD9016849084900314301600068C00730
:1005E000C00FB04201D00120F8BD2878400706D5E1
:1005F0006068072109028843E9680843606000F0E9
:100600002DF86168084A0906090F515CC84007497E
:1006100008600020FFF718FF0020F8BD002002400E
:1006200000100240881300002C1E00080800002063
:100630000148006870470000080000200448054990
:1006400000684968044A4905490F515CC840704731
:1006500008000020001002403C1E000830B516A320
:100660000FCB89B06C460FC417A30FCB0FC41A4928
:100670004A680C20144604401848042C05D0184B36
:10068000082C04D00C2C00D1184609B030BD9402BF
:10069000240F6D462C5DC96A04AD0907090FD2030A
:1006A000695C920F022A02D0032A00D11846FFF794
:1006B0003DFD6043E9E70000020304050607080961
:1006C0000A0B0C0D0E0F101001020304050607089B
:1006D000090A0B0C0D0E0F100010024000127A00D8
:1006E000006CDC02FEB504460078F04EF04DC00709
:1006F00048D068680007800F01281FD0686800078D
:10070000800F022804D16868C003800F022815D02A
:100710006168012919D001208004002901D0052930
:1007200017D02968B143296029688143296060682E
:1007300000281BD0FFF76AFE074613E028688003F5
:1007400020D56068002876D01CE0286830432860F7
:10075000EDE7296801432960F7E7FFF757FEC01B63
:10076000642869D828688003F7D50BE0FFF74EFEB0
:10077000074604E0FFF74AFEC01B6428F1D828684A
:100780008003F7D4207880073ED568680007800F83
:1007900014D068680007800F022804D16868C0037D
:1007A000800F01280AD0E068002828681DD00121A8
:1007B00008432860FFF72AFE07460BE028688007F9
:1007C0000BD5E068012836D107E0FFF71FFEC01BFC
:1007D0000228C6D828688007F7D52868F8218843FA
:1007E0002169C900084328600EE0400840002860E5
:1007F000FFF70CFE074604E0FFF708FEC01B0228C7
:10080000AFD828688007F7D42078000724D5E0699E
:100810000028686A11D0012108436862FFF7F6FDDD
:10082000074604E0FFF7F2FDC01B022899D8686A6A
:100830008007F7D510E036E1D1E04008400068625B
:10084000FFF7E4FD074604E0FFF7E0FDC01B0228C8
:1008500087D8686A8007F7D42078042740070028E3
:1008600061DA00200190E869C00008D4E969B8069F
:100870000143E961E96901400120009101908D483F
:100880000168C90511D40168821511430160FFF7A1
:10089000BDFD009005E0FFF7B9FD0099401A6428FE
:1008A00097D884480068C005F5D5A06801280AD00B
:1008B000002801D0052811D0286A4008400028628D
:1008C000286AB84302E0286A012108432862A06828
:1008D000002812D0FFF79AFD00900AE0286A3843FA
:1008E0002862F0E7FFF792FD0099411A72488142B1
:1008F00075D8286A8007F5D50DE0FFF787FD0090D1
:1009000006E0FFF783FD0099411A6B48814266D8E3
:10091000286A8007F5D40198002804D0E9690120ED
:1009200000078143E9612078C00635D56069012858
:100930000CD0401D686B24D038436863686B400856
:1009400040006863FFF762FD074622E0686B3843AA
:100950006863686B012108436863FFF757FD07462A
:1009600004E0FFF753FDC01B022838D8686B8007EE
:10097000F7D5686BF8218843A169C900084368630B
:100980000AE0B8436863F4E7FFF740FDC01B0228A4
:1009900025D8686B8007F7D42078800637D568683B
:1009A0000007800F032813D068680007800F022813
:1009B00004D16868C003800F032809D0206A00288A
:1009C000686B16D030436863FFF720FD06460CE0E5
:1009D000686BC0031BD5206A012864D117E05BE077
:1009E000FFF714FD801B022856D8686BC003F7D5AB
:1009F0000DE0B0436863FFF709FD064604E0FFF72A
:100A000005FD801B022847D8686BC003F7D4606AD5
:100A1000002846D069680907890F022943D00126BA
:100A200036060228286805D0B0432860FFF7EEFCA0
:100A3000044633E0B0432860FFF7E8FC074604E0D3
:100A4000FFF7E4FCC01B022826D828688001F7D4F1
:100A5000E86A216B000900010843E862A16AE06AC4
:100A6000084369687B22D203914308436860286881
:100A700030432860FFF7CAFC044604E0FFF7C6FCD9
:100A8000001B022808D828688001F7D509E0FFF785
:100A9000BDFC001B022801D90320FEBD286880018F
:100AA000F5D40020FEBD0120FEBD000000000100C5
:100AB000001002400070004088130000F8B50400E8
:100AC00007D0002625464035A662687F002802D060
:100AD00005E00120F8BD2E77204600F04BF80223F8
:100AE0006B77206801684022914301600721E0682C
:100AF0000902884201D9002201E0012212030F27D6
:100B00003F02B84202D0884200D0A662276B002F75
:100B100005D1884201D9236301E001202063A16847
:100B20006068636908432169194308430123A16987
:100B30005B0219400843E1690843216A0843A16A3E
:100B4000084321680860616B606AA36908431B0C55
:100B50000427E1683B40194308432168104348607B
:100B60002068C1697A029143C161266601206877D5
:100B70000020F8BD00B500680D4987B0884215D146
:100B80000C48826981140A4382618069084005909B
:100B9000E0200090022001900021032003900291A8
:100BA000049109206946C006FFF78CFB07B000BD21
:100BB0000030014000100240FFB5064604464036B2
:100BC000307F002781B00D46012809D00120307701
:100BD000FFF71CFC0090707F012804D002279DE0E5
:100BE000022005B0F0BD002D72D0039800286FD010
:100BF0000320707700202066A5630399A1870399DD
:100C0000E1872064B080F0802065E0640121A06865
:100C1000C903884205D1206801680122920311436B
:100C2000016020680168490603D40168402211432D
:100C300001600720E16800028142606823D9002832
:100C400002D0E08F01281AD121682888C86005E009
:100C500020688168890706D52988C160E08F401E19
:100C6000E087AD1C0BE0049800283ED0401C06D065
:100C7000FFF7CCFB0099411A0498814235D2E08FEE
:100C80000028E5D136E0002802D0E08F01282ED1DF
:100C9000E08F012803D921682888C8600CE021680A
:100CA000287808730FE020688168890711D5E18FE3
:100CB000012906D92988C160E08F801EE087AD1C1C
:100CC00015E029780173E08F401EE0876D1C0EE06F
:100CD00023E00498002808D0401C08D0FFF796FBBA
:100CE0000099411A0498814201D3032716E0E08F4E
:100CF0000028D8D12046009A049900F09EFA0028D6
:100D000001D020202066A068002803D12068C16897
:100D100080680090206E002800D0012701207077A5
:100D20000020307738465CE704220449042808692B
:100D300002D09043086170471043FBE700E000E0F9
:100D400070470000094910B5401E884201D90120B2
:100D500010BD074C60610321081F00F04BFA002012
:100D6000A06107202061002010BD0000FFFFFF00F0
:100D700000E000E010B5FFF7E3FF10BD70477047DB
:100D8000F8B503680446D869196805072D0F07D11F
:100D9000820605D58A0603D5204600F027FCF8BD5B
:100DA0009A68002D64D0D507ED0FFF2621360E403E
:100DB0002E435DD0C60706D0CE0504D501261E629F
:100DC000E36E3343E366870702230426002F06DA27
:100DD000D70704D027683B62E76E3743E7664707CB
:100DE00006D5D20704D022681662E26E1A43E26684
:100DF000020709D520220A402A4305D02368082289
:100E00001A62E36E1343E366E26E002AC7D08006DF
:100E100004D5880602D5204600F0E8FBE06E000706
:100E200003D42068806840061CD5204600F0C2FB31
:100E300020688168490611D581684022914381600C
:100E4000606E00280AD01A494163606EFFF708FA05
:100E50000028A4D0606E416B8847F8BD2046FFF79C
:100E60008EFFF8BD2046FFF78AFF0020E066F8BD40
:100E7000C5020DD552020BD50120000518622021B4
:100E800020466030417281722046FFF777FFF8BD3F
:100E9000020605D50A0603D5204600F07DFCF8BD04
:100EA0004006FCD54806FAD5204600F092FBF8BD76
:100EB000A115000870B5040005D025466035687A94
:100EC000002802D006E0012070BD002028722046D4
:100ED00000F026F82420687220680168490849005B
:100EE0000160204600F0C0FB0128EDD0606A0028B8
:100EF00002D0204600F0BAFA206841680922D202E6
:100F000091434160206881682A2291438160206872
:100F10000168012211430160204600F00DFB70BD05
:100F200000B50068124987B088421FD11148C269D4
:100F3000012149040A43C261C069084005900C20A0
:100F400000900220019000200290032003900120D5
:100F5000049009206946C006FFF7B4F90022114643
:100F60001C20FFF7B7FA1C20FFF7AAFA07B000BD54
:100F70000044004000100240F0B5034660339C7A04
:100F8000202C44D100290BD0002A09D001258468E7
:100F90002D03AC4206D10669002E03D1CE0701D045
:100FA0000120F0BD1E7A012E31D001261E7241654E
:100FB000014640310A834A83FF27AC4204D10269CB
:100FC000002A12D1134A0EE07F22002C08D00125FE
:100FD0002D07AC420AD10469002C04D03F2202E064
:100FE0000469002C01D08A8300E08F830021C16650
:100FF00022229A72197201688A6832438A600068F4
:101000000168FF222132114301600020F0BD02205F
:10101000F0BD0000FF01000010B50348017803484F
:1010200000F0C0FD10BD000000000020EC0000201A
:10103000FFB5064604466036707A83B00D46202818
:1010400058D1002D0CD00598002809D00120A168A6
:101050000003814207D12069002804D1E80702D0AB
:10106000012007B0F0BD307A012843D00120307252
:101070000020E06621207072FFF7C8F90190274632
:101080004037059838820598788218E0788A401EA3
:10109000788206980090002280212046019B00F073
:1010A000AEFB002818D10120A1680003814202D1C3
:1010B0002069002812D02168287808856D1C788A5C
:1010C0000028E3D106980090002240212046019B91
:1010D00000F095FB002808D00320C2E7288821688B
:1010E000C005C00D0885AD1CE9E720207072002006
:1010F0003072B6E70220B4E77047FEE770B51A48D1
:1011000086B04269012149040A43426142690A40AA
:101110000592426949000A43426140690925084035
:10112000ED060590012210212846FFF769F90F4EC0
:10113000012202213046FFF763F9102000900120C0
:10114000002401900294694603942846FFF7BAF8F8
:1011500002200090112001900294694603943046C9
:10116000FFF7B0F806B070BD001002400004004860
:1011700010B510480E490160FF2105314160002182
:10118000072212028160C2600161012242615202A3
:101190008261016208224162C261816207220163A9
:1011A000C2624163FFF78AFC002800D0FEE710BD51
:1011B000003001401800002010B50C480A490160B9
:1011C000E1214902416000218160C16001618161CA
:1011D000C1610C22016242614162FFF76BFE00288F
:1011E00000D0FEE710BD0000004400407C0000205D
:1011F000704700008307FF22DB0E9A408907090E23
:10120000994000280BDA0007000F083883080848C7
:101210009B001818C36993430B43C361704783084D
:1012200004489B001B1818689043084318607047D7
:1012300000ED00E000E400E07047F8B50F460B4613
:1012400015460092032104460022C90200F01BF853
:101250002026002812D13B460022802120460095FE
:1012600000F05CF8002809D103213B460022490226
:101270002046009500F007F8002803D0206E304388
:1012800020660320F8BDF8B51D4617460E460446F5
:101290003DE0032149028E4205D1002F03D1017B9D
:1012A000684601700078681C31D0002D05D0FFF72A
:1012B000ADF80699401AA84229D320684168E02277
:1012C000914341606068C11FFD390CD10121A068C4
:1012D000C903884202D04911884204D120680168BC
:1012E0004022914301600120A16A4003814207D15D
:1012F00021680A6882430A6021680A6802430A601A
:10130000012040346077002020770320F8BD20685A
:1013100081683140B942BCD10020F8BDF8B51D4606
:1013200017460E46044633E0681C31D0002D05D028
:10133000FFF76CF80699401AA84229D32068416843
:10134000E022914341606068C11FFD390CD1012149
:10135000A068C903884202D04911884204D120689C
:1013600001684022914301600120A16A400381424B
:1013700007D121680A6882430A6021680A6802432B
:101380000A60012040346077002020770320F8BDF8
:10139000206881683046884304D00020B842C3D119
:1013A0000020F8BD0120F9E7704710B5FFF734F8C9
:1013B000FFF7E0FC10BD10B592B020200090012096
:1013C0000024089009946846FFF78CF9002800D0A3
:1013D000FEE707200D9003200E900F94012110943A
:1013E0000DA8FFF77BF8002800D0FEE7FFF720F9F3
:1013F0007D21C900FEF79AFEFFF7A4FC0420FFF749
:1014000093FC00221146501EFFF764F812B010BD85
:10141000134801680122114301604168114A1140DB
:1014200041600168104A1140016001680122920484
:101430009143016041683F22120491434160C16AB7
:1014400009090901C162016BFF22D4329143016392
:10145000416B4908490041630021816070470000E9
:10146000001002400CB8FF08FFFFF6FE10B5818C9B
:10147000C90707D001684A6801235B049A43836A5D
:101480001A434A60818C890707D501684A6801239D
:101490001B049A43C36A1A434A60818C490707D5E3
:1014A00001684A6801239B049A43036B1A434A600C
:1014B000818C090707D501684A680123DB039A4339
:1014C000436B1A434A60818CC90607D5026891684C
:1014D00001231B039943836B19439160818C890617
:1014E00007D501688A6801235B039A43C36B1A43DB
:1014F0008A60818C490612D503685A680121090562
:10150000046C8A4322435A60026C8A4207D1026803
:10151000516803235B059943436C19435160818CE7
:10152000090607D501684A680123DB04806C9A43E9
:1015300002434A6010BD0000F8B500260446C666A6
:10154000FEF764FF05461449206888421DD10068F3
:10155000124F000709D501212B46002249052046DC
:10156000009700F04CF900280DD120680068400772
:101570000BD501212B46002289052046009700F05B
:101580003EF9002801D00320F8BD202060346072AD
:10159000A07226720020F8BD00380140FFFFFF0155
:1015A00010B5406A0022014640314A834A82FFF763
:1015B000E6FB10BD01680A68FF2321339A430A60E5
:1015C00001688A68520852008A6020216030817266
:1015D000704710B501680A6840239A430A602022C8
:1015E00069210A54FFF788FD002010BD70B502463E
:1015F000403203466033948B9D7A0168222D05D0DA
:101600008869082210438861022070BD898C0126F8
:1016100085683603B54202D10569002D0BD0214003
:10162000446D651C45652170518B491E0904090CE8
:10163000518307D015E0456D21402980416D891CFB
:101640004165F1E701680A68FF242134A2430A607A
:1016500001688A68520852008A6020219972FFF757
:10166000DBFC002070BD0000F8B504462369A268C9
:10167000E5691A43636910202B43002125681A434A
:101680002B680E463E4F3B4013432B6023685A683D
:1016900003252D03AA43E5682A435A60236AA269F9
:1016A00025681A43AB680B273F02BB431343AB606B
:1016B000344A2568954210D1334A126B9207920F33
:1016C0000ED0012A05D0022A05D0032A09D1022012
:1016D00007E0042005E0082003E02C4A954200D1F1
:1016E00000200122E369D203934224D100280CD0C8
:1016F00002280DD0042813D0082817D001260A0983
:1017000012010807400F10432FE0FEF797FF09E092
:1017100061681F4A48088018FEF708FD81B2EEE7AD
:10172000FEF79CFF616840004A08F4E76168012207
:1017300048081204EFE7002808D0022809D004283E
:101740000BD0082814D001263046F8BDFEF776FFEE
:1017500005E061680F4A48080CE0FEF77FFF61680A
:101760004A088018FEF7E2FC80B22168C860EBE707
:10177000616848088018FEF7D9FC80B2E860E3E7AA
:10178000F369FFEF003801400010024000440040C0
:101790000024F40000127A006921095C212901D09B
:1017A0000220704702464032518A002912D001239C
:1017B00081681B03994202D10169002915D0C16CCF
:1017C0004B1CC364006809780185508A401E508212
:1017D0000020704701680A6880239A430A60006805
:1017E0000168402211430160F2E7C16C0368098877
:1017F000C905C90D1985C16C891CC164E5E7FFB530
:1018000081B017460E4604460A9D1DE0681C1BD099
:10181000002D05D0FEF7FAFD0499401AA84213D90D
:1018200020680168FF22A13291430160206881682D
:10183000490849008160202060346072A072002055
:101840002072032005B0F0BD2068C169304688438E
:1018500004D00020B842D9D00020F3E70120F9E7F6
:1018600010B50248FFF78CFA10BD00007C00002084
:101870000FB410B503A9044B044A029800F018F8FD
:1018800010BC08BC04B018478D1B00080C000020D9
:1018900002E008C8121F08C1002AFAD17047704739
:1018A000002001E001C1121F002AFBD17047000097
:1018B000FFB58FB00F460446002606E025280AD063
:1018C000129A11999047641C761C20780028F5D153
:1018D000304613B0F0BD00250121A14A009500E07B
:1018E0000543641C23780846203B98401042F7D1FA
:1018F00020782E2815D1042005436078641C2A28FE
:101900000AD101CF641C00900BE000990A225143D8
:1019100030394018641C009020780146303909297C
:10192000F3D920786C280ED004DC4C2813D06A2818
:1019300012D104E074280ED07A280DD10BE00120DA
:101940004005054307E00121090562780D43824205
:1019500001D16D18641C641C2078864669284AD021
:1019600008DC0028B4D058286DD0632810D0642833
:1019700008D140E070286BD0732812D0752860D051
:10198000782860D0129A704611999047761CE5E04D
:101990003878694608720020487202A80190012038
:1019A00003E0386801900020C0433F1D69070CD553
:1019B000002500E06D1C00998D420FDA8542F9DBAD
:1019C0000199495D0029F5D108E0002500E06D1C72
:1019D0008542FCDB0199495D0029F8D1761907E0C1
:1019E000019801990078491C0191129A1199904728
:1019F0006D1EF5D2B2E00A20029000216802400F6D
:101A0000039102280CD001CFC117844600290DDABA
:101A10006246084652420021814194462D2008E04A
:101A2000FF1DFF08FF0003CF8446EFE7280504D51C
:101A30002B206A46107401203CE0E8073AD02020B1
:101A4000F7E70A2000E0102000210391029007E050
:101A500010200290002104200543082003910090EB
:101A60006802400F022810D001CF002184460020D8
:101A70000D9028071FD5704670280CD0029A1020B0
:101A8000039B42401A430CD015E0FF1DFF08FF00E6
:101A900003CF8446EBE740206A46107401200D9086
:101AA0000CE06046084306D030206A461074704649
:101AB000507402200D907046582804D029A001903F
:101AC0000DA80E900DE02CA0F9E76046039B029A4A
:101AD000FEF774FB019B84469B5C0E9A521E0E928D
:101AE000137060460843F0D10E9805A9081A2030FB
:101AF0000190680701D5009801E00120009001994C
:101B0000884203DD01460198081A00E00020002504
:101B1000009006E004A8129A405D119990476D1C50
:101B2000761C0D988542F5DB04E0129A302011995D
:101B30009047761C0099481E00900029F5DC08E0CB
:101B40000E980E990078491C0E91129A119990479F
:101B5000761C0199481E01900029F1DC641CB4E652
:101B60000928010030313233343536373839616273
:101B70006364656600000000303132333435363737
:101B800038394142434445460000000013B5642300
:101B9000012269460248FFF74BFA00981CBD00007D
:101BA0007C00002010B504460D2910D0A288A06842
:101BB0008154A088E188884201D2401CA080A0689E
:101BC000002240182038C277FEF720FC206010BDAC
:101BD00010B50446C180084600F0D6F8A060002089
:101BE0002060204600F014F8002010BD10B5818858
:101BF000C288914202D300F00BF805E080684018DB
:101C00002038C07F0A2801D0002010BD012010BD5F
:101C100010B500218180C1888068FEF7B5FA10BD3B
:101C2000FEF702FCFFF7C7FBFFF768FAFFF7C4FAFD
:101C3000FFF79EFA002000F0DDF8FF20F530FEF7F8
:101C400033FB42A0FFF714FE20214548FFF7C0FFF9
:101C5000434D444C4248012242497038FFF78CF909
:101C60003F48FFF7C3FF0028F4D0002060803EA06B
:101C7000A968FFF7FDFD05223FA1A868FEF78FFACE
:101C800000285ED1A868407930281AD031281BD0AE
:101C900032281DD033281FD0342821D0352823D016
:101CA000362825D0372827D0382828D0392829D0D9
:101CB00063282AD073282CD074282ED070282FD0D7
:101CC00032E0608820212DE001216088490329E06D
:101CD00001216088890325E001216088C90321E092
:101CE000FF21608801311DE001216088490219E06F
:101CF00001216088890215E06088042112E0608873
:101D000008210FE0608810210CE001216088C902E1
:101D100008E001216088090304E06088022101E0F5
:101D20006088012108436080618815A0FFF7A0FD4D
:101D3000608800F05FF86420FEF7B6FA002000F03B
:101D400059F80748FFF764FF84E7000070696D7079
:101D5000206D79206D6963726F776176650A000086
:101D6000EC00002000000020492072656365697660
:101D700065643A2025730A00554152542000000042
:101D8000307825780A000000F0B50B30C108C90092
:101D9000144F0026144A0FE003688B420BD38B428A
:101DA00005D95C1A4318456830C3083B00E0436816
:101DB000136002C004E0021D10680028ECD1304618
:101DC000002803D13868002801D00020F0BD064A61
:101DD00006481060064A121AD208D20044C00120F8
:101DE0003860D7E71400002010000020FC0000201D
:101DF000F802002038B569460870000A4870094C9E
:101E0000002202212046FEF7FBFA642302226946E3
:101E10000548FEF7D1FE012202212046FEF7F0FA26
:101E200038BD000000040048180000200000000039
:101E3000000000000102030406070809000000007A
:101E400001020304641E00080000002018000000C6
:101E5000901800087C1E000818000020E006000012
:101E6000A0180008000000000000000000127A0026
:0C1E700000000000000000000000000066
:04000005080000C12E
:00000001FF
