:020000040800F2
:10000000E0040020D5000008B90E0008C10D00086A
:1000100000000000000000000000000000000000E0
:100020000000000000000000000000007110000847
:100030000000000000000000010F0008731000081D
:100040000501000805010008050100080501000878
:100050000501000805010008050100080501000868
:100060000501000805010008050100080501000858
:100070000501000805010008050100080501000848
:100080000501000800000000000000000501000854
:100090000000000005010008050100080501000836
:1000A0000000000005010008050100080501000826
:1000B0000501000800000000050100080501000816
:1000C0000348854600F048F80048004765140008DA
:1000D000E00400200C4880F308880C480168090EF1
:1000E0000B4A914205D10B480B4901600B480C4962
:1000F00001600C4880470C480047FEE7FEE7FEE73A
:10010000FEE7FEE7FEE70000E00400200400000038
:100110001F00000018100240010000000000014014
:1001200000000000D9100008C100000830B50B46DF
:10013000014600202022012409E00D46D5409D42C1
:1001400005D31D469540491B254695404019154647
:10015000521E002DF1DC30BD064C0125064E05E097
:10016000E36807CC2B430C3C98471034B442F7D3D8
:10017000FFF7AAFF041500082415000831B500F0A8
:10018000B3F8009C0546601C00D0641C00F0ACF87D
:10019000401BA042FAD338BDF8B5002389E0012402
:1001A0009C402A46A44622407ED04C68022C01D0B6
:1001B000122C0CD1DC08A40027183C6A5D07ED0E58
:1001C0000F26AE40B4430E69AE4026433E6205683A
:1001D0005E000324B4400F79A543BF07BF0FB740AB
:1001E0002F4307604D68012D05D0022D03D0112D3E
:1001F00001D0122D0ED18568CF68A543B7402F439B
:10020000876047686546AF430D79ED06ED0F9D4069
:100210003D434560C568A5438C68B4402C43C46029
:100220004C68E40044D5264CA56901263543A561F8
:10023000A4699D0834400094224CAD002F19BC687D
:100240009D072E0F0F25B540AC430925ED06A842AA
:1002500001D100250AE01C4DA84201D1012505E08D
:100260001A4DA84201D1022500E00525B5402543DD
:10027000BD60174C25684E689543F60300D51543BD
:10028000256065684E689543B60300D515436560E3
:10029000A5684E689543F60200D51543A560E5684C
:1002A0004E689543B60200E002E000D51543E560D4
:1002B0005B1C0A681546DA4000D070E7F8BD000004
:1002C00000100240000001400004004800080048FF
:1002D0000004014042694A4042617047002A01D04F
:1002E0008161704781627047014800687047000073
:1002F0000000002002480168491C016070470000AE
:100300000000002010B5064801681022114301606A
:10031000002000F007F800F017F8002010BD0000E2
:100320000020024010B5044600F0E6F87D21C90027
:10033000FFF7FCFE00F06AFC00222146501E00F090
:100340002DF8002010BD000008B512488169012277
:1003500011438161816911400091C26901040A431E
:10036000C261C0690022084000901146501F00F091
:1003700015F800221146901E00F010F800221146D8
:10038000501E00F00BF80448016810221143016070
:1003900008BD0000001002400000014010B500F050
:1003A0008DFD10BDF8B505464E480E460068C007E5
:1003B000C00FB0420AD24B48016849084900314396
:1003C00001600068C007C00FB04270D12878464C69
:1003D000800705D56068F0218843A96808436060FC
:1003E0002878C00753D06868012817D0022818D091
:1003F000032819D021688907002958DA616889081B
:10040000890001436160FFF76FFF696807460129B2
:1004100013D002291DD0032927D034E02168890395
:10042000EAE721688901E7E7616BC903E4E7FFF7C1
:100430005BFFC11B2D48814223D860680007800FF5
:100440000128F4D123E0FFF74FFFC11B2748814269
:1004500017D860680007800F0228F4D117E0FFF773
:1004600043FFC11B214881420BD860680007800F01
:100470000328F4D10BE0FFF737FFC11B1B48814273
:1004800001D90320F8BD60680007800FF3D115483B
:100490000168C907C90FB1420BD901684908490071
:1004A000314301600068C007C00FB04201D0012095
:1004B000F8BD2878400706D56068072109028843FF
:1004C000E9680843606000F02DF86168084A090691
:1004D000090F515CC840074908600020FFF722FF60
:1004E0000020F8BD002002400010024088130000E8
:1004F000EC14000804000020014800687047000068
:10050000040000200448054900684968044A490578
:10051000490F515CC84070470400002000100240A1
:10052000FC14000830B516A30FCB89B06C460FC47D
:1005300017A30FCB0FC41A494A680C201446044075
:100540001848042C05D0184B082C04D00C2C00D1D2
:10055000184609B030BD9402240F6D462C5DC96A5F
:1005600004AD0907090FD203695C920F022A02D079
:10057000032A00D11846FFF7D9FD6043E9E70000E0
:1005800002030405060708090A0B0C0D0E0F1010D4
:100590000102030405060708090A0B0C0D0E0F10D3
:1005A0000010024000127A00006CDC02FEB5044626
:1005B0000078F04EF04DC00748D068680007800F03
:1005C00001281FD068680007800F022804D16868DE
:1005D000C003800F022815D06168012919D00120BD
:1005E0008004002901D0052917D02968B14329606A
:1005F000296881432960606800281BD0FFF774FEDA
:10060000074613E02868800320D56068002876D06C
:100610001CE0286830432860EDE729680143296021
:10062000F7E7FFF761FEC01B642869D828688003DC
:10063000F7D50BE0FFF758FE074604E0FFF754FE3E
:10064000C01B6428F1D828688003F7D4207880077D
:100650003ED568680007800F14D068680007800FD7
:10066000022804D16868C003800F01280AD0E0681E
:10067000002828681DD0012108432860FFF734FEB8
:1006800007460BE0286880070BD5E068012836D1C3
:1006900007E0FFF729FEC01B0228C6D8286880079C
:1006A000F7D52868F82188432169C90008432860E4
:1006B0000EE0400840002860FFF716FE074604E001
:1006C000FFF712FEC01B0228AFD828688007F7D4B6
:1006D0002078000724D5E0690028686A11D001213C
:1006E00008436862FFF700FE074604E0FFF7FCFDE1
:1006F000C01B022899D8686A8007F7D510E036E158
:10070000D1E0400840006862FFF7EEFD074604E0D4
:10071000FFF7EAFDC01B022887D8686A8007F7D474
:10072000207804274007002861DA00200190E8695A
:10073000C00008D4E969B8060143E961E9690140EC
:100740000120009101908D480168C90511D401680C
:10075000821511430160FFF7C7FD009005E0FFF728
:10076000C3FD0099401A642897D884480068C005E2
:10077000F5D5A06801280AD0002801D0052811D09D
:10078000286A400840002862286AB84302E0286AC4
:10079000012108432862A068002812D0FFF7A4FDB9
:1007A00000900AE0286A38432862F0E7FFF79CFDD2
:1007B0000099411A7248814275D8286A8007F5D598
:1007C0000DE0FFF791FD009006E0FFF78DFD009929
:1007D000411A6B48814266D8286A8007F5D401988F
:1007E000002804D0E969012000078143E9612078ED
:1007F000C00635D5606901280CD0401D686B24D037
:1008000038436863686B400840006863FFF76CFD1D
:10081000074622E0686B38436863686B0121084330
:100820006863FFF761FD074604E0FFF75DFDC01B4D
:10083000022838D8686B8007F7D5686BF8218843A1
:10084000A169C900084368630AE0B8436863F4E734
:10085000FFF74AFDC01B022825D8686B8007F7D434
:100860002078800637D568680007800F032813D0EA
:1008700068680007800F022804D16868C003800FF1
:10088000032809D0206A0028686B16D030436863BB
:10089000FFF72AFD06460CE0686BC0031BD5206AF3
:1008A000012864D117E05BE0FFF71EFD801B0228E2
:1008B00056D8686BC003F7D50DE0B0436863FFF707
:1008C00013FD064604E0FFF70FFD801B022847D802
:1008D000686BC003F7D4606A002846D069680907CE
:1008E000890F022943D0012636060228286805D040
:1008F000B0432860FFF7F8FC044633E0B0432860BB
:10090000FFF7F2FC074604E0FFF7EEFCC01B0228ED
:1009100026D828688001F7D4E86A216B0009000115
:100920000843E862A16AE06A084369687B22D2034F
:10093000914308436860286830432860FFF7D4FC7F
:10094000044604E0FFF7D0FC001B022808D8286802
:100950008001F7D509E0FFF7C7FC001B022801D989
:100960000320FEBD28688001F5D40020FEBD0120D3
:10097000FEBD0000000001000010024000700040B9
:1009800088130000F8B5040007D00026254640353E
:10099000A662687F002802D005E00120F8BD2E770E
:1009A000204600F04BF802236B7720680168402254
:1009B000914301600721E0680902884201D90022C1
:1009C00001E0012212030F273F02B84202D0884201
:1009D00000D0A662276B002F05D1884201D923637E
:1009E00001E001202063A168606863690843216910
:1009F000194308430123A1695B0219400843E169D7
:100A00000843216A0843A16A084321680860616BB2
:100A1000606AA36908431B0C0427E1683B40194343
:100A200008432168104348602068C1697A029143F5
:100A3000C1612666012068770020F8BD00B5006816
:100A40000D4987B0884215D10C48826981140A4348
:100A50008261806908400590E020009002200190AA
:100A60000021032003900291049109206946C006E9
:100A7000FFF792FB07B000BD0030014000100240BC
:100A8000FFB5064604464036307F002781B00D464C
:100A9000012809D001203077FFF726FC0090707FF5
:100AA000012804D002279DE0022005B0F0BD002DF2
:100AB00072D0039800286FD0032070770020206642
:100AC000A5630399A1870399E1872064B080F08032
:100AD0002065E0640121A068C903884205D120682F
:100AE00001680122920311430160206801684906F0
:100AF00003D401684022114301600720E16800022D
:100B00008142606823D9002802D0E08F01281AD1E1
:100B100021682888C86005E020688168890706D5B3
:100B20002988C160E08F401EE087AD1C0BE004986F
:100B300000283ED0401C06D0FFF7D6FB0099411A92
:100B40000498814235D2E08F0028E5D136E00028B4
:100B500002D0E08F01282ED1E08F012803D921682F
:100B60002888C8600CE02168287808730FE02068A6
:100B70008168890711D5E18F012906D92988C160CB
:100B8000E08F801EE087AD1C15E029780173E08FAF
:100B9000401EE0876D1C0EE023E00498002808D07A
:100BA000401C08D0FFF7A0FB0099411A049881422D
:100BB00001D3032716E0E08F0028D8D12046009A01
:100BC000049900F09EF9002801D020202066A0683A
:100BD000002803D12068C16880680090206E00283A
:100BE00000D00127012070770020307738465CE77D
:100BF000042204490428086902D090430861704720
:100C00001043FBE700E000E070470000094910B521
:100C1000401E884201D9012010BD074C60610321AC
:100C2000081F00F04BF90020A06107202061002080
:100C300010BD0000FFFFFF0000E000E010B5FFF76F
:100C4000E3FF10BD70B5040005D025466035687A15
:100C5000002802D006E0012070BD00202872204646
:100C600000F026F8242068722068016849084900CD
:100C70000160204600F0F8FA0128EDD0606A0028F3
:100C800002D0204600F056FA206841680922D202BC
:100C900091434160206881682A22914381602068E5
:100CA0000168012211430160204600F0A9FA70BDDD
:100CB00000B500680E4987B0884217D10D48C26957
:100CC000012149040A43C261C069084005900C2013
:100CD0000090022001900020029003200390012048
:100CE000049009206946C006FFF756FA07B000BD18
:100CF0000044004000100240FFB50646044660363E
:100D0000707A83B00D46202858D1002D0CD005985C
:100D1000002809D00120A1680003814207D1206981
:100D2000002804D1E80702D0012007B0F0BD307AD6
:100D3000012843D0012030720020E066212070722B
:100D4000FFF7D2FA01902746403705983882059878
:100D5000788218E0788A401E7882069800900022F7
:100D600080212046019B00F017FB002818D10120AC
:100D7000A1680003814202D12069002812D02168B5
:100D8000287808856D1C788A0028E3D106980090A1
:100D9000002240212046019B00F0FEFA002808D0E6
:100DA0000320C2E728882168C005C00D0885AD1C56
:100DB000E9E72020707200203072B6E70220B4E725
:100DC000FEE7000070B51A4886B042690121490467
:100DD0000A43426142690A400592426949000A4356
:100DE0004261406909250840ED0605900122102165
:100DF0002846FFF773FA0F4E012202213046FFF713
:100E00006DFA1020009001200024019002946946A0
:100E100003942846FFF7C0F90220009011200190AA
:100E20000294694603943046FFF7B6F906B070BDE8
:100E3000001002400004004810B510480E4901603F
:100E4000FF21053141600021072212028160C2604A
:100E50000161012242615202826101620822416203
:100E6000C261816207220163C2624163FFF78AFDAA
:100E7000002800D0FEE710BD003001400C0000202B
:100E800010B50C480A490160E12149024160002186
:100E90008160C16001618161C1610C2201624261B6
:100EA0004162FFF7CFFE002800D0FEE710BD000032
:100EB0000044004070000020704700008307FF22BC
:100EC000DB0E9A408907090E994000280BDA0007CB
:100ED000000F0838830808489B001818C36993431B
:100EE0000B43C3617047830804489B001B181868B4
:100EF000904308431860704700ED00E000E400E014
:100F00007047F8B50F460B4615460092032104467C
:100F10000022C90200F01BF82026002812D13B460F
:100F2000002280212046009500F05CF8002809D1BD
:100F300003213B46002249022046009500F007F8B5
:100F4000002803D0206E304320660320F8BDF8B59A
:100F50001D4617460E4604463DE0032149028E42D7
:100F600005D1002F03D1017B684601700078681C11
:100F700031D0002D05D0FFF7B7F90699401AA842E5
:100F800029D320684168E022914341606068C11F15
:100F9000FD390CD10121A068C903884202D0491152
:100FA000884204D1206801684022914301600120F9
:100FB000A16A4003814207D121680A6882430A601E
:100FC00021680A6802430A600120403460770020EB
:100FD00020770320F8BD206881683140B942BCD138
:100FE0000020F8BDF8B51D4617460E46044633E00E
:100FF000681C31D0002D05D0FFF776F90699401A0C
:10100000A84229D320684168E0229143416060688A
:10101000C11FFD390CD10121A068C903884202D04B
:101020004911884204D1206801684022914301603F
:101030000120A16A4003814207D121680A688243E6
:101040000A6021680A6802430A6001204034607720
:10105000002020770320F8BD20688168304688434F
:1010600004D00020B842C3D10020F8BD0120F9E728
:10107000704710B5FFF73EF9FFF7E0FD10BD10B562
:1010800092B0202000900120002408900994684626
:10109000FFF78CFA002800D0FEE707200D90032010
:1010A0000E900F94012110940DA8FFF77BF90028F2
:1010B00000D0FEE7FFF720FA7D21C900FFF736F8E0
:1010C000FFF7A4FD0420FFF793FD00221146501EF8
:1010D000FFF764F912B010BD1348016801221143F3
:1010E00001604168114A114041600168104A114095
:1010F00001600168012292049143016041683F222E
:10110000120491434160C16A09090901C162016B7E
:10111000FF22D43291430163416B49084900416386
:101120000021816070470000001002400CB8FF08E9
:10113000FFFFF6FE10B5818CC90707D001684A6829
:1011400001235B049A43836A1A434A60818C8907AE
:1011500007D501684A6801231B049A43C36A1A43EE
:101160004A60818C490707D501684A6801239B04BE
:101170009A43036B1A434A60818C090707D50168BB
:101180004A680123DB039A43436B1A434A60818C0C
:10119000C90607D50268916801231B039943836B35
:1011A00019439160818C890607D501688A680123FB
:1011B0005B039A43C36B1A438A60818C490612D53C
:1011C00003685A6801210905046C8A4322435A6066
:1011D000026C8A4207D10268516803235B05994378
:1011E000436C19435160818C090607D501684A6830
:1011F0000123DB04806C9A4302434A6010BD000067
:10120000F8B500260446C666FFF76EF80546144991
:10121000206888421DD10068124F000709D50121BE
:101220002B46002249052046009700F0B5F800281B
:101230000DD12068006840070BD501212B46002204
:1012400089052046009700F0A7F8002801D0032068
:10125000F8BD202060346072A07226720020F8BDB4
:1012600000380140FFFFFF01F8B504462369A2687A
:10127000E5691A43636910202B43002125681A434E
:101280002B680E463E4F3B4013432B6023685A6841
:1012900003252D03AA43E5682A435A60236AA269FD
:1012A00025681A43AB680B273F02BB431343AB606F
:1012B000344A2568954210D1334A126B9207920F37
:1012C0000ED0012A05D0022A05D0032A09D1022016
:1012D00007E0042005E0082003E02C4A954200D1F5
:1012E00000200122E369D203934224D100280CD0CC
:1012F00002280DD0042813D0082817D001260A0987
:1013000012010807400F10432FE0FFF7FBF809E038
:1013100061681F4A48088018FEF708FF81B2EEE7AF
:10132000FFF700F9616840004A08F4E761680122AC
:1013300048081204EFE7002808D0022809D0042842
:101340000BD0082814D001263046F8BDFFF7DAF894
:1013500005E061680F4A48080CE0FFF7E3F86168B0
:101360004A088018FEF7E2FE80B22168C860EBE709
:10137000616848088018FEF7D9FE80B2E860E3E7AC
:10138000F369FFEF003801400010024000440040C4
:101390000024F40000127A00FFB581B017460E4613
:1013A00004460A9D1DE0681C1BD0002D05D0FEF7E9
:1013B0009BFF0499401AA84213D920680168FF22B4
:1013C000A132914301602068816849084900816029
:1013D000202060346072A07200202072032005B0CB
:1013E000F0BD2068C1693046884304D00020B8426F
:1013F000D9D00020F3E70120F9E7000010B5024A38
:10140000024900F014F810BD4D1400080800002037
:1014100002E008C8121F08C1002AFAD170477047BD
:10142000002001E001C1121F002AFBD17047F8B56E
:1014300016460F460446002503E03946B047641CB3
:101440006D1C20780028F8D12846F8BD13B5642318
:10145000012269460248FFF74FFC00981CBD0000BE
:1014600070000020FEF74EFFFFF709FEFFF7AAFC11
:10147000FFF706FDFFF7E0FC002000F01BF8FF245B
:1014800024020925ED0610212846FEF723FF05A0BA
:10149000FFF7B4FF204600F00DF8C820FEF76EFEFF
:1014A000F1E7000068656C6C6F20776F726C640AFE
:1014B0000000000038B569460870000A4870094C01
:1014C000002202212046FEF709FF6423022269461A
:1014D0000548FFF7D5FA012202212046FEF7FEFE5D
:1014E00038BD0000000400480C000020000000008F
:1014F00000000000010203040607080900000000C4
:101500000102030424150008000000200C00000064
:1015100010140008301500080C000020D40400004E
:10152000201400080000000000127A0000000000F3
:04000005080000C12E
:00000001FF
